:020000040000fa
:080000000001040000000000f3
:020000040000fa
:100200002f8820000e7922000e01880000000000d7
:100210000c000700e083200001002000110007000f
:10022000000020000000e000020032000000020098
:1002300000000000a8040200000000000040da00f6
:100240000000fe004440a900000020000000e00083
:100250000300320000002000a00188004440a800f4
:100260000000060091018800800078000000eb008b
:1002700015003700e280400032a0b4009101ba00be
:10028000e280400032a0b4009102ba00e280400057
:1002900032a0b4000002eb00472bde00f507b200ed
:1002a000602ce10004003a000059eb008301e900f2
:1002b000fdff3e00040037006128e100010032002c
:1002c0000082eb00040007001101ba000200e00008
:1002d000e8ff3a00000006003159ba008301e90046
:1002e0000c0032002159ba008301e90008003200f5
:1002f0000400e00003003a00e280400032a0b400b5
:10030000f5ff370011d9ba008301e900faff3a007e
:100310008100e800e180400032a0b4000000060047
:10032000ff3ffc00f7418000084280001942800036
:100330000900440001002400c8020200000000007f
:100340000080530051552500c80202000000000043
:100350008003780009005400719e2400c802020046
:10036000000000000004780007007800f1408000e1
:10037000c802020000000000800478000800780035
:10038000e1408000c802020000000000008044003c
:100390002042880008007800f1408000c802020076
:1003a000000000008004780007007800e140800031
:1003b000c8020200000000000080540030428800a3
:1003c0000000fc000000060030158800a022a800f4
:1003d000a002ae00feff3700a002aa0000148000b9
:1003e0004100de0000000600ff3ffc00303020002e
:1003f000e4010200000000008003780020202000bb
:10040000e40102000000000000047800a542800022
:100410000538e10012003c000540e10010003c00fe
:10042000c1bbde0041c4de00088043004180de0025
:1004300011408000c8020200000000008000780027
:10044000b04180009202020000000000b140800034
:10045000c80202000000000030438800010037009d
:100460008980a8000000fc0000000600ff3ffc009f
:1004700020428000f1408000c8020200000000001d
:100480008004780030428000e1408000c802020011
:10049000000000008083540020428000e140800082
:1004a000c802020000000000800478003042800092
:1004b000f1408000c80202000000000000844400f7
:1004c000f7418800a0ed260088007800c8020200ed
:1004d00000000000800478000000240087007800fd
:1004e000c8020200000000000080540000428800a2
:1004f0006012290088007800c80202000000000095
:10050000800478000000240087007800c802020000
:100510000000000000805400104288000000fc0031
:100520000000060000027800810278000500e0006b
:10053000010032000300370060026a00100033003f
:1005400011003700120009000520d9000400300016
:10055000110228000100e100090034000b003700ff
:1005600060026a0003003300e0826a000400330086
:1005700002003700e0826a0001003b000200370001
:100580001002280001003700f0fd270000000600df
:1005900000027800810278001301c0004100c80009
:1005a000f60020000600c8001001800000000600d0
:1005b000ff3ffc0001005000660302000000000045
:1005c00000027800820278001301c0004100c800d8
:1005d000200302000000000066030200000000008b
:1005e00000047800d9408000090042006603020040
:1005f0000000000000027800d040880083027800ec
:100600001301c0004100c8002003020000000000e8
:100610006603020000000000800478000900440026
:100620009a408000ab4080000a80e6000a00780013
:100630000b00e6000b0078004380de002e00370040
:100640004220ef0060026a000a0033002a018000a5
:100650000a00e00018003a001a0180000a00e000d9
:1006600018003200020009004555de0012003a0071
:10067000140037002a018000fbff2f000a00e00071
:1006800001003a000f0037000b50e10007003a006c
:100690001a0180000a00e0000a003200020009008e
:1006a0004555de0001003200060037001a0228001e
:1006b0001a01880003003700fafd27001a0188009c
:1006c000000037001001800000000600fafd230042
:1006d0001b022c000a00e10003003d000b00e100ba
:1006e00003003400030037000a00780001003700df
:1006f0000b007800000006000000fc00000006006f
:10070000ff3ffc00b5408000f04180000500400044
:10071000a403020000000000b00e88000042800028
:1007200005004000a403020000000000c00e880085
:100730001042800005004000a403020000000000f9
:10074000d00e8800040037000000e00001003c00eb
:1007500000002000000006000000fc000000060071
:100760000600fa00200798000000eb00000f780058
:100770000c0037000000eb00100798000400370061
:100780000060fe001e0090000000e80010079800c6
:100790009e009000e0822600808f5000f8ff360017
:1007a0001e0fe8002e0090009e0f1000f1ff390090
:1007b0000080fa00000006000000fa00e402a90030
:1007c000e422a900e442a900e462a900e4c2a9006d
:1007d000011c200091407800c0cfb30000c0600031
:1007e0000014a000c0e1b700210e80000000280026
:1007f00000806000116f200001007000200e880052
:10080000c801a900c821a900c841a900c881a90040
:10081000c8a1a900c8c1a900ca41a900ccc1bf0094
:10082000f043b20001c8b30001407000cce1b70052
:10083000c11c20009140780000ccb30000c06000d3
:10084000a040b300cce1b700d201a900d221a90099
:10085000d241a90030de20001008880005e1a9007f
:10086000205320006008880011e1a900c00d250078
:100870007008880013e1a90040032d00d00888000b
:100880001fe1a90030de2000e008880021e1a90076
:10089000012a20009140780000ceb30000c0700013
:1008a000a0e2b700a062a900112a200091407800c0
:1008b000c0cfb30000c060000014a000a1e2b700e8
:1008c0000000eb0010158800512a200091407800ac
:1008d00000ceb30000c060000014a000a5e2b70085
:1008e000412a20009140780000ccb30000c0600095
:1008f0005040b300a4e2b700300128004015880042
:100900000000eb0050158800a1e2a80081e0a900da
:10091000aac0bf007040b300aae0b7009180a80051
:100920008c60a8008cc0a90051092000914078007b
:10093000f0c8b30000c0600001c6b3000140700001
:1009400095e0b70090e0a9000080fa0000000600e2
:100950000000fa0098ff07007801070084c0bf007c
:100960000044b2000004e00068003200ff3ffc00d9
:100970008080200094fe0700800078000040800006
:1009800000805000f0418800909020008efe07000b
:100990008000780000408000008050000042880005
:1009a000a0a0200088fe07008000780000408000a2
:1009b00000805000104288000000fc00f1418000df
:1009c000b0428000808f5000010034008980a80070
:1009d00001428000b0428000808f5000010034004e
:1009e0008980a80011428000b0428000808f5000b2
:1009f000010034008980a800f1418000c0428000dd
:100a0000808f500001003d008980a80001428000d5
:100a1000c0428000808f500001003d008980a80006
:100a200011428000c0428000808f500001003d00d4
:100a30008980a8003afe070060428000d04088000c
:100a40005042800042428000214280008442800067
:100a50008001780004007800d5fe0700604288001d
:100a60006142800080438000008040002042880076
:100a700021428000b0408000808f5000020035008d
:100a8000b04080002042880021428000c0408000a9
:100a9000808f500002003c00c0408000204288004f
:100aa00070428000d0408800504280004242800066
:100ab0003142800094428000800178000400780078
:100ac000bbfe070070428800704280003042880000
:100ad00031428000b0408000808f5000020035001d
:100ae000b04080003042880031428000c040800029
:100af000808f500002003c00c040800030428800df
:100b00005afe0700fefe070084c0a90084c0bf0093
:100b100001c8b300014060000004e000840032001e
:100b2000ff3ffc005050200027fe070080007800a7
:100b30000040800000805000f0418800606020008c
:100b400021fe0700800078000040800000805000f7
:100b500000428800707020001bfe070080007800b3
:100b60000040800000805000104288000000fc001f
:100b7000ebfd070020428000b04188003042800039
:100b8000c0418800ff3ffc00b0b020000efe07000f
:100b9000800078000040800000805000f041880014
:100ba000c0c0200008fe07008000780000408000e0
:100bb0000080500000428800d0d0200002fe0700d4
:100bc00080007800004080000080500010428800c3
:100bd0000000fc00d2fd070020428000b0438800e6
:100be00030428000a043880090438000d0428800bb
:100bf000f1428000c0418000080107009043880056
:100c0000a0418000d0408800904180008241800057
:100c100091438000800178000000eb0064fe070033
:100c2000a0418800a14180003041800058fe0700ab
:100c3000a0418800a141800010418000808f5000b9
:100c40000200350010418000a0418800a1418000d1
:100c500020418000808f500002003c002041800035
:100c6000a0418800f0438000d042880011438000fa
:100c7000b0438000e9000700f0438800b1438000e2
:100c8000f043800000805000004488005040800005
:100c9000d040880080408000724080006140800029
:100ca00034408000800178000400780040fe070096
:100cb0005040880051408000004480000080400087
:100cc0008042880081428000b0428000808f5000c6
:100cd00002003500b04280008042880081428000de
:100ce000c0428000808f500002003c00c042800063
:100cf00080428800a043800090428800914280009a
:100d0000b0428000808f500002003500b042800069
:100d10009042880091428000c0428000808f500045
:100d200002003c00c04280009042880084e0a9009c
:100d300086c0bf000042b2000004e000480032005c
:100d4000a9fd070020408000d042880001438000b8
:100d500020408000b1000700604088008043800090
:100d6000d04288000143800030438000ab00070080
:100d700080438800404380000000e8004043880032
:100d8000504380000000e00018003a00414380001a
:100d900020438000808f50001400350031438000d4
:100da00060438000808f5000010035008980a800da
:100db0003143800070438000808f500001003c0070
:100dc0008980a800304380000000e00001003a0064
:100dd0008980a80070072000400e880010002000c5
:100de000504388000000eb004043880050438000df
:100df0000000e000190032003143800060438000b1
:100e0000808f5000010035008980a80031438000a8
:100e100070438000808f500001003c008980a80052
:100e2000304380000000e00001003a008980a80003
:100e3000304080000000e8003040880031408000f1
:100e400040408000808f500002003500404080000c
:100e5000304088000000eb004043880086a0a900d5
:100e60000060fe00bdfe370000a0fe003600f80066
:100e7000849fbe00869fbe000000fa00a141800052
:100e80003041800000804000004188000041800027
:100e90006101b900404180005141800002004000e2
:100ea00083804800404188005141880042418000d1
:100eb000534180006041800071418000800f5100eb
:100ec000818f5900080035000000eb00e0408800e9
:100ed00080eb2700f04088006000b80040418800a7
:100ee0005141880001003700540007008460a900c8
:100ef0000080fa004f03be004f02be003600f9002a
:100f00000080fe0000400600801f78000000fa000c
:100f1000c1e1a9000000eb00400e8800e622a90014
:100f2000e642a900e662a900e6c2a9008980a900fc
:100f30000080fa004f007800004006000000fa0030
:100f4000200e8000b0408800200e80000000ea00e3
:100f5000c0408800b04080004300dd009040880021
:100f6000b140800080ff2f000088b900a0408800b9
:100f70000000eb00400e8800c1e1a9001000200035
:100f8000900e8800e0012000f5fd0700a1e2a80016
:100f9000e602a800c05d2000f1fd0700e0e02000af
:100fa00009fd070000408800e602a900e0012000da
:100fb000ebfd0700e622a800e0012000e8fd0700a5
:100fc000b0408000b00e8800b0408000c00e8800a5
:100fd000b0408000d00e8800e642a800400120000a
:100fe000dffd0700e662a80040012000dcfd0700ed
:100ff000e6c2a800e0012000d9fd0700c1e1a80079
:1010000005e1a80011e1a80013e1a8001fe1a80074
:1010100021e1a8000080fa0000000600ff3ffc006c
:10102000d242800002005000c8020200000000000e
:10103000020040000000fc0000000600ff3ffc0032
:10104000e9408000f040800001418000c8020200b9
:101050000000000000804400e0408800f94080006b
:1010600001418000c802020000000000008054001e
:0c107000f04088000000fc0000000600ba
:020000040000fa
:0200000401f009
:04000000f7ff000006
:020000040000fa
:0200000401f009
:04000400c0ff000039
:020000040000fa
:0200000401f009
:04000800dfff000016
:020000040000fa
:100008009e0800009e0800009e0800009e08000050
:100018009e0800009e0800009e0800009e08000040
:100028009e0800009e0800009e080000340700009b
:100038009e0800009e0800009e0800009e08000020
:100048009e0800009e0800009e0800009e08000010
:100058009e0800009e0800009e0800009e08000000
:100068009e0800009e0800009e0800009e080000f0
:100078009e0800009e0800009e0800009e080000e0
:100088009e0800009e0800009e0800009e080000d0
:100098009e0800009e0800009e0800009e080000c0
:1000a8009e0800009e0800009e0800009e080000b0
:1000b8009e0800009e0800009e0800009e080000a0
:1000c8009e0800009e0800009e0800009e08000090
:1000d800840700009e0800009e0800009e0800009b
:1000e8009e0800009e0800009e0800009e08000070
:0800f8009e0800009e080000b4
:020000040000fa
:100108009e0800009e0800009e0800009e0800004f
:100118009e0800009e0800009e0800009e0800003f
:100128009e0800009e0800009e080000340700009a
:100138009e0800009e0800009e0800009e0800001f
:100148009e0800009e0800009e0800009e0800000f
:100158009e0800009e0800009e0800009e080000ff
:100168009e0800009e0800009e0800009e080000ef
:100178009e0800009e0800009e0800009e080000df
:100188009e0800009e0800009e0800009e080000cf
:100198009e0800009e0800009e0800009e080000bf
:1001a8009e0800009e0800009e0800009e080000af
:1001b8009e0800009e0800009e0800009e0800009f
:1001c8009e0800009e0800009e0800009e0800008f
:1001d800840700009e0800009e0800009e0800009a
:1001e8009e0800009e0800009e0800009e0800006f
:0801f8009e0800009e080000b3
:020000040000fa
:10107c0000080000820000000200000000000e00ca
:10108c00740000000000ef003f00000000000900a9
:10109c000003000000000000000000000000000041
:1010ac0000000000b87e0000002d0000d3ff5c00a3
:1010bc00050000000000e8002303000012000300fc
:1010cc000000000000000000000000000000000014
:1010dc0000000000000000000000000024000300dd
:1010ec000000000000000000000000005078fb0031
:1010fc000f05f00000002d0000ec0400e803580080
:10110c0002282300000000000000000082067e0080
:10111c00f9000000000000000000000000001200b8
:10112c0000030000000000000000000000000000b0
:020000040000fa
:08113c000040da000000fe0093
:00000001FF
